S0120000536572766F4D6F746F722E73726563F2
S11300000C942A000C9434000C9434000C943400A6
S11300100C9434000C9434000C9434000C9434008C
S11300200C9434000C9434000C9434000C9434007C
S11300300C9434000C9434000C9434000C9434006C
S11300400C9434000C9434000C9434000C9434005C
S11300500C94340011241FBECFE5D8E0DEBFCDBF21
S11300600E943F000C9471020C9400008FEF8ABB35
S11300708EE087BB84E884BB88E281BB08950E943C
S113008036000E94830080E00E94880080E00E9485
S113009088002FEF83ED90E3215080409040E1F7FA
S11300A000C000008DE20E9488002FEF83ED90E3F2
S11300B0215080409040E1F700C000008AE50E9492
S11300C088002FEF83ED90E3215080409040E1F7CA
S11300D000C0000087E80E9488002FEF83ED90E3C2
S11300E0215080409040E1F700C0000084EB0E9462
S11300F088002FEF83ED90E3215080409040E1F79A
S113010000C00000C3CF0E94A0000E94C700089551
S1130110682F70E080E090E00E9469012DEC3CECD7
S11301204CE45DE30E94F50120E030E040E450E45B
S11301300E94CC000E943801CB010E94AE000895B9
S113014081B3806281BB8FB5826A8FBD8EB58861B1
S11301508EBD82EE94E097BD86BD089542EE54E0D4
S11301609C01249FC001259F900D349F900D112464
S11301709C013695279536952795ABE7B4E10E9407
S113018062029695879501979BBD8ABD08958EB5A9
S113019084608EBD08955058BB27AA270E94E300AF
S11301A00C94BB010E94AD0138F00E94B40120F010
S11301B039F49F3F19F426F40C94AA010EF4E09547
S11301C0E7FB0C94A401E92F0E94CC0158F3BA1761
S11301D0620773078407950720F079F4A6F50C9459
S11301E0EE010EF4E0950B2EBA2FA02D0B01B901F0
S11301F090010C01CA01A0011124FF27591B99F099
S1130200593F50F4503E68F11A16F040A22F232FA4
S1130210342F4427585FF3CF469537952795A795F4
S1130220F0405395C9F77EF41F16BA0B620B730B9B
S1130230840BBAF09150A1F0FF0FBB1F661F771F0C
S1130240881FC2F70EC0BA0F621F731F841F48F4C1
S1130250879577956795B795F7959E3F08F0B0CF4A
S11302609395880F08F09927EE0F97958795089531
S11302700E94D40188F09F5798F0B92F9927B7515D
S1130280B0F0E1F0660F771F881F991F1AF0BA9536
S1130290C9F714C0B13091F00E94EE01B1E00895A5
S11302A00C94EE01672F782F8827B85F39F0B93F97
S11302B0CCF3869577956795B395D9F73EF49095E9
S11302C08095709561957F4F8F4F9F4F0895E89467
S11302D009C097FB3EF490958095709561957F4F8A
S11302E08F4F9F4F9923A9F0F92F96E9BB27939538
S11302F0F695879577956795B795F111F8CFFAF448
S1130300BB0F11F460FF1BC06F5F7F4F8F4F9F4F78
S113031016C0882311F096E911C0772321F09EE8D6
S1130320872F762F05C0662371F096E8862F70E03C
S113033060E02AF09A95660F771F881FDAF7880F16
S11303409695879597F9089597F99F6780E870E0E7
S113035060E008959FEF80EC089500240A94161637
S1130360170618060906089500240A94121613069F
S1130370140605060895092E0394000C11F488232D
S113038052F0BB0F40F4BF2B11F460FF04C06F5F49
S11303907F4F8F4F9F4F089557FD9058440F551F1F
S11303A059F05F3F71F04795880F97FB991F61F0F3
S11303B09F3F79F087950895121613061406551F6A
S11303C0F2CF4695F1DF08C0161617061806991FD6
S11303D0F1CF86957105610508940895E894BB27CB
S11303E066277727CB0197F908950E9408020C9499
S11303F0BB010E94AD0138F00E94B40120F09523A6
S113040011F00C94A4010C94AA0111240C94EF0192
S11304100E94CC0170F3959FC1F3950F50E0551FD6
S1130420629FF001729FBB27F00DB11D639FAA2745
S1130430F00DB11DAA1F649F6627B00DA11D661F94
S1130440829F2227B00DA11D621F739FB00DA11DB5
S1130450621F839FA00D611D221F749F3327A00D6F
S1130460611D231F849F600D211D822F762F6A2F0B
S113047011249F5750409AF0F1F088234AF0EE0F70
S1130480FF1FBB1F661F771F881F91505040A9F79D
S11304909E3F510580F00C94A4010C94EF015F3F42
S11304A0E4F3983ED4F3869577956795B795F795D9
S11304B0E7959F5FC1F7FE2B880F911D9695879551
S11304C097F90895A29FB001B39FC001A39F700D37
S11304D0811D1124911DB29F700D811D1124911D48
S10904E00895F894FFCF1B
S9030000FC
